:100000000C9497000C94B6000C94B6000C94B600B7
:100010000C94B6000C94B6000C94B6000C94B60088
:100020000C94B6000C94B6000C94B6000C94B60078
:100030000C94CF000C94B6000C94B6000C94B6004F
:100040000C94B6000C94B6000C9411010C9453015E
:100050000C94B6000C94B6000C94B6000C94B60048
:100060000C94B6000C94B6000C94B6000C94B60038
:100070000C94B6000C94B6000C94DC010C940E02A7
:100080000C94B6000C94B6000C94B6004F085108BE
:1000900053085508570859085B085D0869086B083C
:1000A0006D086F0871087308750877080763423692
:1000B000B79BD8A71A39685618AEBAAB558C1D3CF9
:1000C000B7CC5763BD6DEDFD753EF6177231BF00BD
:1000D0000000803F08000000BE922449123EABAAF7
:1000E000AA2ABECDCCCC4C3E00000080BEABAAAA52
:1000F000AA3E00000000BF000000803F000000009A
:1001000000084178D3BB4387D1133D190E3CC3BDD2
:100110004282AD2B3E68EC8276BED98FE1A93E4C7F
:1001200080EFFFBE01C4FF7F3F00000000001124EC
:100130001FBECFEFD0E1DEBFCDBF11E0A0E0B1E048
:10014000E6EDFFE200E00BBF02C007900D92A03584
:10015000B107D9F723E0A0E5B1E001C01D92AF32AD
:10016000B207E1F70E945A0E0C94E9170C940000B4
:10017000E0910001F091010109948EB58C608EBD73
:100180001DBC1CBC8CE692E09BBD8ABD089587B760
:100190008F7E87BF089587B7806187BF08951F92BC
:1001A0000F920FB60F9211248F939F9380917A0232
:1001B00090917B02019690937B0280937A029BB38D
:1001C00081E089278BBB8091EA019091EB010A962F
:1001D0009093EB018093EA018091780290917902EB
:1001E000019749F4809144029091450201969093C1
:1001F0004502809344028091080290910902019780
:1002000049F480912D0390912E03019690932E0333
:1002100080932D039F918F910F900FBE0F901F9091
:1002200018951F920F920FB60F9211240BB60F92D2
:100230002F933F934F935F936F937F938F939F93EE
:10024000AF93BF93EF93FF938BB12CB1E0919701E4
:10025000EF5FEF7190919601E91741F08C71E09397
:100260009701F0E0E656FE4F208301C082E09091B6
:100270009501892B809395012A3511F40E94B800CD
:10028000FF91EF91BF91AF919F918F917F916F916E
:100290005F914F913F912F910F900BBE0F900FBE2A
:1002A0000F901F9018951F920F920FB60F92112466
:1002B0000BB60F928F939F93EF93FF9390919901B9
:1002C00080919801981761F0E0919801EF5FEF71CC
:1002D000E0939801F0E0E654FE4F80818CB901C0B4
:1002E0005598FF91EF919F918F910F900BBE0F90BA
:1002F0000FBE0F901F9018951092990110929801BF
:10030000109297011092960197FF02C022E02BB93C
:1003100090789093900089B988E98AB986E08093B3
:100320009500089590919701809196019817A9F0F2
:10033000909196019F5F9F71E92FF0E0E656FE4F86
:10034000208180919501909396011092950190E003
:10035000982F8827820F911D089580E091E00895DD
:10036000909199019F5F9F71209198019217E1F3FD
:10037000E92FF0E0E654FE4F808390939901559A5F
:100380000895CF93DF93EC018991882319F00E949F
:10039000B001FACFDF91CF910895CF93DF93FC01A5
:1003A0008491EF012196882321F00E94B001FE0183
:1003B000F7CFDF91CF9108951F920F920FB60F9252
:1003C00011240BB60F922F938F939F93EF93FF936C
:1003D00080919B0090919C008C71E0915201EF5FA5
:1003E000EF7120915101E21739F0E0935201F0E0F2
:1003F000EB5AFE4F908301C082E090915001892B0F
:1004000080935001FF91EF919F918F912F910F90C9
:100410000BBE0F900FBE0F901F9018951F920F925A
:100420000FB60F9211240BB60F928F939F93EF93F9
:10043000FF939091540180915301981769F0E091D6
:100440005301EF5FEF71E0935301F0E0EB58FE4F83
:10045000808180939C0005C080919A008F7D80935D
:100460009A00FF91EF919F918F910F900BBE0F908B
:100470000FBE0F901F9018951092540110925301C7
:10048000109252011092510197FF03C022E0209375
:100490009B009078909398008093990088E98093CE
:1004A0009A0086E080939D0008959091520180917A
:1004B00051019817A9F0909151019F5F9F71E92F09
:1004C000F0E0EB5AFE4F2081809150019093510152
:1004D0001092500190E0982F8827820F911D089567
:1004E00080E091E00895909154019F5F9F71209169
:1004F00053019217E1F3E92FF0E0EB58FE4F8083B0
:100500009093540180919A00806280939A0008959C
:10051000CF93DF93EC018991882319F00E94730235
:10052000FACFDF91CF910895CF93DF93FC018491AF
:10053000EF012196882321F00E947302FE01F7CF7C
:10054000DF91CF91089510924302109242021092CF
:10055000AD021092AC0284EF91E090932603809359
:1005600025039093B1028093B0029093F1018093A0
:10057000F0019093E5018093E4019093E101809371
:10058000E001A098D7981092410210924002109278
:100590000302109202021092F9011092F8011092D7
:1005A0002C0310922B031092AB021092AA0210920D
:1005B0007F0210927E0210927D0210927C021092B5
:1005C000240310922303909381028093800210925F
:1005D000EC011092ED011092EE011092EF011092D9
:1005E0000402109205021092060210920702109265
:1005F000DC011092DD011092DE011092DF0188EE25
:1006000093E09093AF028093AE02089586E70E9434
:100610000C09811109C00E94570981E090E0909374
:100620000D0280930C0208950E94570910920D024A
:1006300010920C02089580917A0290917B02609151
:10064000AE027091AF020E94520F892B09F073C164
:100650000E94120B6093EC017093ED018093EE0108
:100660009093EF010E949C0B60930402709305022B
:1006700080930602909307020E94370D6093DC017D
:100680007093DD018093DE019093DF0160E070E5FF
:100690008DE794E40E942F0E6093F2017093F301B2
:1006A0008093F4019093F5018091E0029091E10232
:1006B000019709F040C16091EC017091ED018091CA
:1006C000EE019091EF012091FE013091FF014091E8
:1006D0000002509101020E9483118823E1F1809170
:1006E000EC019091ED01A091EE01B091EF01BF936B
:1006F000AF939F938F931F9285E08F9382E491E055
:100700009F938F9384E491E09F938F931F9282E352
:100710008F9382EB92E09F938F930E94F21482EB6F
:1007200092E00E94C1018091EC019091ED01A091B5
:10073000EE01B091EF018093FE019093FF01A09331
:100740000002B09301028DB79EB70E960FB6F894D3
:100750009EBF0FBE8DBF6091040270910502809113
:100760000602909107022091DA023091DB0240915B
:10077000DC025091DD020E9483118823E1F1809117
:10078000040290910502A0910602B0910702BF9366
:10079000AF939F938F931F9286E08F9382E491E0B3
:1007A0009F938F9384E491E09F938F931F9282E3B2
:1007B0008F9382EB92E09F938F930E94F21482EBCF
:1007C00092E00E94C1018091040290910502A091E3
:1007D0000602B09107028093DA029093DB02A093A5
:1007E000DC02B093DD028DB79EB70E960FB6F8947B
:1007F0009EBF0FBE8DBF6091DC017091DD018091C5
:10080000DE019091DF012091FA013091FB014091CE
:10081000FC015091FD010E9483118823E1F1809138
:10082000DC019091DD01A091DE01B091DF01BF9369
:10083000AF939F938F931F9287E08F9382E491E011
:100840009F938F9384E491E09F938F931F9282E311
:100850008F9382EB92E09F938F930E94F21482EB2E
:1008600092E00E94C1018091DC019091DD01A09194
:10087000DE01B091DF018093FA019093FB01A09318
:10088000FC01B093FD018DB79EB70E960FB6F8949C
:100890009EBF0FBE8DBF6091F2017091F3018091F8
:1008A000F4019091F5012091E6013091E70140912A
:1008B000E8015091E9010E9483118823E1F18091C0
:1008C000F2019091F301A091F401B091F501BF9371
:1008D000AF939F938F931F9288E08F9382E491E070
:1008E0009F938F9384E491E09F938F931F9282E371
:1008F0008F9382EB92E09F938F930E94F21482EB8E
:1009000092E00E94C1018091F2019091F301A091C7
:10091000F401B091F5018093E6019093E701A09373
:10092000E801B093E9018DB79EB70E960FB6F89423
:100930009EBF0FBE8DBF089580917A0290917B0279
:1009400060912503709126030E94520F892B09F0B4
:1009500054C085E00E942C069093B1028093B002AF
:100960008091E0029091E102019709F046C08091E8
:10097000B0029091B1022091E4013091E501821B17
:10098000930B099764F48091E4019091E501209123
:10099000B0023091B102821B930B099774F18091E0
:1009A000B0029091B1029F938F931F9289E08F9331
:1009B00082E491E09F938F9384E491E09F938F93DF
:1009C0001F9282E38F9382EB92E09F938F930E941A
:1009D000F21482EB92E00E94C1018091B0029091EA
:1009E000B1029093E5018093E4018DB79EB70C9618
:1009F0000FB6F8949EBF0FBE8DBF089580917A0206
:100A000090917B0260912503709126030E94520F02
:100A1000892B09F054C087E00E942C069093F101C5
:100A20008093F0018091E0029091E102019709F03A
:100A300046C08091F0019091F1012091E001309148
:100A4000E101821B930B099764F48091E00190917E
:100A5000E1012091F0013091F101821B930B099784
:100A600074F18091F0019091F1019F938F931F9207
:100A70008AE08F9382E491E09F938F9384E491E0E6
:100A80009F938F931F9282E38F9382EB92E09F93C9
:100A90008F930E94F21482EB92E00E94C101809138
:100AA000F0019091F1019093E1018093E0018DB705
:100AB0009EB70C960FB6F8949EBF0FBE8DBF0895DB
:100AC0008091440290914502049724F0109279029B
:100AD000109278028091780290917902892BA9F482
:100AE000999905C01092F9011092F8010EC0109268
:100AF00045021092440281E090E09093F9018093C6
:100B0000F80190937902809378028091E0029091AD
:100B1000E1020197C9F52091F8013091F901809126
:100B2000AA029091AB022817390771F18091F80160
:100B30009091F9019F938F931F928BE08F9382E4A2
:100B400091E09F938F9384E491E09F938F931F9202
:100B500082E38F9382EB92E09F938F930E94F21433
:100B600082EB92E00E94C1018091F8019091F9011D
:100B70009093AB028093AA028DB79EB70C960FB6E6
:100B8000F8949EBF0FBE8DBF089580912D03909164
:100B90002E03049724F0109209021092080280910B
:100BA000080290910902892BA9F4999905C0109225
:100BB0002C0310922B030EC010922E0310922D03C3
:100BC00081E090E090932C0380932B039093090293
:100BD000809308028091E0029091E1020197C9F5AB
:100BE00020912B0330912C0380917E0290917F0203
:100BF0002817390771F180912B0390912C039F9353
:100C00008F931F928CE08F9382E491E09F938F9358
:100C100084E491E09F938F931F9282E38F9382EB02
:100C200092E09F938F930E94F21482EB92E00E94D5
:100C3000C10180912B0390912C0390937F028093AC
:100C40007E028DB79EB70C960FB6F8949EBF0FBE6E
:100C50008DBF08950895089596E896B9806C87B978
:100C6000369A3699FECF23E080E090E0369A3699A6
:100C7000FECF44B155B1840F951F2150B9F7379875
:100C800063E070E00E94520FCB01089580E090E095
:100C900020E030E0AC0163E0440F551F6A95E1F7B6
:100CA000FA01E20FF31FEE0FFF1FE85BFD4F118209
:100CB00010822F5F3F4F2830310591F70196833026
:100CC000910531F7089582E30E940C09811109C052
:100CD0000E94570981E090E0909349028093480276
:100CE00006C00E945709109249021092480284E3FC
:100CF0000E940C09811109C00E94570981E090E00F
:100D000090934B0280934A0206C00E9457091092AA
:100D10004B0210924A0286E30E940C09811109C01D
:100D20000E94570981E090E090934D0280934C021D
:100D300006C00E94570910924D0210924C0288E39F
:100D40000E940C09811109C00E94570981E090E0BE
:100D500090934F0280934E0206C00E945709109252
:100D60004F0210924E028AE30E940C09811109C0C1
:100D70000E94570981E090E09093510280935002C5
:100D800006C00E94570910925102109250028CE343
:100D90000E940C09811109C00E94570981E090E06E
:100DA000909353028093520206C00E9457091092FA
:100DB0005302109252028EE30E940C09811109C065
:100DC0000E94570981E090E090935502809354026D
:100DD00006C00E945709109255021092540280E4F6
:100DE0000E940C09811109C00E94570981E090E01E
:100DF000909357028093560208950E9457091092CB
:100E0000570210925602089582E40E940C09811143
:100E100009C00E94570981E090E0909359028093A5
:100E2000580206C00E9457091092590210925802A7
:100E300084E40E940C09811109C00E94570981E0D5
:100E400090E090935B0280935A0206C00E9457097B
:100E500010925B0210925A0286E40E940C098111E2
:100E600009C00E94570981E090E090935D02809351
:100E70005C0206C00E94570910925D0210925C024B
:100E800088E40E940C09811109C00E94570981E081
:100E900090E090935F0280935E0206C00E94570923
:100EA00010925F0210925E028AE40E940C09811186
:100EB00009C00E94570981E090E0909361028093FD
:100EC000600206C00E9457091092610210926002EF
:100ED0008CE40E940C09811109C00E94570981E02D
:100EE00090E0909363028093620206C00E945709CB
:100EF00010926302109262028EE40E940C0981112A
:100F000009C00E94570981E090E0909365028093A8
:100F1000640206C00E945709109265021092640292
:100F200080E50E940C09811109C00E94570981E0E7
:100F300090E0909367028093660208950E9457099B
:100F40001092670210926602089582E50E940C09D1
:100F5000811109C00E94570981E090E090936902D5
:100F60008093680206C00E9457091092690210928D
:100F7000680284E50E940C09811109C00E9457098A
:100F800081E090E090936B0280936A0206C00E9419
:100F9000570910926B0210926A0286E50E940C09B2
:100FA000811109C00E94570981E090E090936D0281
:100FB00080936C0206C00E94570910926D02109235
:100FC0006C0288E50E940C09811109C00E94570932
:100FD00081E090E090936F0280936E0206C00E94C1
:100FE000570910926F0210926E028AE50E940C0956
:100FF000811109C00E94570981E090E0909371022D
:101000008093700206C00E945709109271021092DC
:1010100070028CE50E940C09811109C00E945709D9
:1010200081E090E0909373028093720206C00E9468
:10103000570910927302109272028EE50E940C09F9
:10104000811109C00E94570981E090E090937502D8
:101050008093740206C00E94570910927502109284
:10106000740280E60E940C09811109C00E94570990
:1010700081E090E0909377028093760208950E9439
:1010800057091092770210927602089501978830DE
:101090009105A0F48A5B9F4FFC010C94660F22E33C
:1010A0000DC024E30BC026E309C028E307C02AE3F0
:1010B00005C02CE303C02EE301C020E4822F089575
:1010C000019788309105A0F4825B9F4FFC010C943E
:1010D000660F22E40DC024E40BC026E409C028E416
:1010E00007C02AE405C02CE403C02EE401C020E5BB
:1010F000822F0895CF93DF93D62FC42F0E944608E6
:101100000E940C0981110CC081E00E945F0985E0FA
:101110000E945F098D2F0E945F098C2F0E945F093A
:10112000DF91CF910C945709CF92DF92EF92FF920B
:101130000F931F93CF93DF936B017A01E9010E9414
:1011400046089FEFC916D10409F068F59FEFE9162C
:10115000F10409F040F5CF3FD10509F020F50F3F2C
:10116000110509F000F50E940C09811112C081E0FF
:101170000E945F0986E00E945F098C2D0E945F0932
:101180008E2D0E945F098C2F0E945F09802F0E9484
:101190005F09DF91CF911F910F91FF90EF90DF904A
:1011A000CF900C945709DF91CF911F910F91FF9031
:1011B000EF90DF90CF900895CF93C62F0E944608FE
:1011C0000E940C09811109C081E00E945F0984E03E
:1011D0000E945F098C2F0E945F09CF910C945709E0
:1011E00008950895CF93C62F0E9460080E940C09AD
:1011F000811109C081E00E945F0984E00E945F09BB
:101200008C2F0E945F09CF910C94570910927100A6
:1012100088E480937000089594EA9093740090910C
:10122000740097FFFCCF90917100987F983021F067
:10123000903111F081E008958093730084E88093E9
:1012400074008091740087FFFCCF80917100887FCB
:10125000883111F0803471F780E0089524EA34E891
:1012600044E9209374009091740097FFFCCF909113
:101270007100987F983011F0903199F78093730046
:10128000309374009091740097FFFCCF909171009F
:10129000987F903211F0983539F440937400909112
:1012A000740094FDFCCFDDCF08950C940C0984E903
:1012B000809374008091740084FDFCCF0895809326
:1012C000730084E8809374008091740087FFFCCFE2
:1012D00090917100987F81E0983209F480E0089540
:1012E00084EC809374008091740087FFFCCF809120
:1012F0007300089584E8809374008091740087FFE0
:10130000FCCF809173000895E2E6F0E080818D7F4C
:1013100080830895E2E6F0E0808182608083089512
:10132000E1E6F0E08081826080830E948A09109269
:10133000DB011092DA011092EB011092EA0108959C
:101340008091DA019091DB0181309105D1F08230FA
:10135000910559F1892B09F040C08091EA019091E3
:10136000EB01843F91401CF40E94840902C00E945A
:101370008A098091EA019091EB01853F91407CF1CF
:1013800027C08091EA019091EB01843691051CF40D
:101390000E94840902C00E948A098091EA0190910A
:1013A000EB0185389340DCF013C08091EA01909105
:1013B000EB018C3B92401CF40E94840902C00E9405
:1013C0008A098091EA019091EB018D3291403CF0C5
:1013D0001092EB011092EA0108950C948A09089585
:1013E000CF93DF93C82F8CEE0E940C09811112C09D
:1013F0008C2F0E945F090E9457098DEE0E940C09F4
:10140000811108C00E947A09C82FD0E00E945709B4
:10141000CE0100C0DF91CF910895CF93DF93C82F05
:101420008CEE0E940C09811117C08C2F0E945F095D
:101430000E9457098DEE0E940C0981110DC00E9477
:101440007009C82FD0E0DC2FCC270E947A09C82B66
:101450000E945709CE0100C0DF91CF9108950E94EC
:101460000D0A98278927982708950C940D0A0C9443
:101470002F0ACF92DF92EF92FF92F82E8CEE0E940D
:101480000C09811127C08F2D0E945F090E94570906
:101490008DEE0E940C09811119C00E947009C82E9E
:1014A000D12CE12CF12CFE2CED2CDC2CCC240E9438
:1014B0007009C82AFE2CED2CDC2CCC240E947A0961
:1014C000C82A0E945709B601C70104C010920D0234
:1014D00010920C02FF90EF90DF90CF9008950F9341
:1014E0001F93CF93DF9388E80E942F0AC2EED2E0C9
:1014F000998388838AE80E942F0A9B838A838CE8D9
:101500000E942F0A9D838C838EE80E942F0A9F835E
:101510008E8380E90E942F0A9987888782E90E943A
:101520002F0A9B878A8784E90E942F0A9D878C87D0
:1015300086E90E942F0A9F878E8788E90E942F0ADA
:10154000998B888B8AE90E942F0A9B8B8A8B8CE966
:101550000E942F0A9D8B8C8B8EE90E942F0A9F8BF5
:101560008E8B81EA0E94F009888F81EE0E942F0AFB
:101570009A8F898F83EE0E94F0098B8F84EE0E94F0
:10158000F0098C0185EE0E94F00924E0000F111F84
:101590002A95E1F78F709927802B912B9D8F8C8F47
:1015A00086EE0E94F0098C0185EE0E94F00934E07D
:1015B000000F111F3A95E1F744E0969587954A95FB
:1015C000E1F7802B912B9F8F8E8F87EE0E94F00981
:1015D00088A3DF91CF911F910F9108958CEE0E9407
:1015E0000C0981111EC082EF0E945F0985E00E94F4
:1015F0005F0984EF0E945F0987EB0E945F0980ED1D
:101600000E945F090E946F0A0E9457098DEE0E9496
:101610000C09811106C00E947A090E94B0010C9445
:10162000570908958F929F92AF92BF92CF92DF9207
:10163000EF92FF920F931F938AEF0E94390AE2EE16
:10164000F2E00081118120E030E0C72ED82EE92E93
:10165000FF24E7FCFA94C01AD10AE20AF30ADC017B
:10166000CB0157E0B595A795979587955A95D1F7F2
:10167000000F111F221F331F4C015D01801A910AB8
:10168000A20AB30AA5019401A281B3810E947A0F34
:101690004B015C017BE0B594A794979487947A956D
:1016A000D1F7A7019601C701B6010E94420F9B0125
:1016B000AC01ACE05595479537952795AA95D1F79C
:1016C000A481B5810E947A0FDC01CB011EE0B595A3
:1016D000A795979587951A95D1F7A5019401280F9D
:1016E000391F4A1F5B1F2093270330932803409321
:1016F000290350932A03A5E0B0E00E946F0FDC019C
:10170000CB0180589F4FAF4FBF4F692F7A2F8B2F40
:1017100099270E94001220E030E048EC52E40E9439
:1017200088111F910F91FF90EF90DF90CF90BF90A5
:10173000AF909F908F9008952F923F924F925F921B
:101740006F927F928F929F92AF92BF92CF92DF92D1
:10175000EF92FF920F931F93CF93DF93CDB7DEB736
:101760006B970FB6F894DEBF0FBECDBF0E94120B71
:1017700087EF0E94390A6E8B7F8B888F998F8091BB
:10178000270390912803A0912903B0912A035C01BB
:101790006D01E12CF12C87018983BA82CB82DC8236
:1017A000ED82FE820F8318879C01A60160E070E045
:1017B00080E090E0345F414051096109710981097D
:1017C000910929873A874B87652E762E872E982E8A
:1017D0009B8F5901C42ED52EE62EF72E082F192FD8
:1017E0000E94820F322E232E488B598B6A8B7B8B63
:1017F0008C8B9D8B3091EB022091EA02932F990FF5
:10180000990B492F592F692F792F892F0E94820F09
:101810000CE00E94B21029833C874A8F5D876E8757
:101820007F87582E492E3091ED022091EC02932FA4
:10183000990F990BA32CB22CC888D988EA88FB8809
:101840000C891D89492F592F692F792F892F0E94C3
:10185000820F08E00E94CB10A980BC84CA8CDD8472
:10186000EE84FF84052D142D0E94E91070588F4FCF
:101870009F4FE091E802F091E9025F01C12CD12C69
:10188000E12CF12C8701E983BA82CB82DC82ED82E4
:10189000FE820F831887C12CD12CE12CF12C00E0A3
:1018A00010E00E94820F01E20E94CB102A8F532E7B
:1018B00049835C876D877E878F87492EA0E00E94D1
:1018C000FB1009F4B8C03091F3022091F202932F7B
:1018D000990F990BA32CB22CC888D988EA88FB8869
:1018E0000C891D89492F592F692F792F892F0E9423
:1018F000820F1901488B598B6A8B7B8B8C8B9D8B4C
:101900003091F1022091F002932F990F990BA98445
:10191000BA84CB84D62CE72CF82C092D1B8D492FAB
:10192000592F692F792F892F0E94820F01E10E9480
:10193000B2105101C888D988EA88FB880C891D89B2
:101940000E94E91059016A017B01382E192F4E8936
:101950005F89688D798D84E0759567955795479572
:101960008A95D1F780E090E0A0E1B0E0841B950B70
:10197000A60BB70B3C014D01990C6608762C430170
:101980009C01AD01662D762D862D962D0FE10E94CE
:10199000B210722E832E942E5987B62FA72FF82FB0
:1019A000E92F3091EF022091EE02932F990F990BBE
:1019B000492F592F692F792F892F03E20E94B210E6
:1019C000032D0E94E91059016A017B018C01272D2A
:1019D000382D492D59856B2F7A2F8F2F9E2F0E94DE
:1019E000F210E5E3AE2EFCE0BF2EC12CD12CE12C91
:1019F000F12C00E010E00E94820FAA8CB52CC98067
:101A0000DC84ED84FE840F85142D0E94DD0FB090E0
:101A1000F702A090F6021B2D110F110BC12ED12E33
:101A2000E12EF12E012F0E94820F03E10E94CB10C4
:101A30000E94FA1103C060E070E0CB016B960FB614
:101A4000F894DEBF0FBECDBFDF91CF911F910F91F4
:101A5000FF90EF90DF90CF90BF90AF909F908F90CE
:101A60007F906F905F904F903F902F9008954F928E
:101A70005F926F927F928F929F92AF92BF92CF921E
:101A8000DF92EF92FF920E94120B8DEF0E940D0ADF
:101A90008090270390902803A0902903B0902A03F8
:101AA0002CE2921A21E0A20AB1086C01E12CF12C7F
:101AB0003EE0CC0CDD1CEE1CFF1C3A95D1F780916A
:101AC000FE029091FF02092E000CAA0BBB0B44E111
:101AD000880F991FAA1FBB1F4A95D1F7C81AD90AA8
:101AE000EA0AFB0AA0910003B0910103A501940149
:101AF0000E947A0FC61AD70AE80AF90A30E4D30E10
:101B0000E11CF11C5FE0F594E794D794C7945A95D3
:101B1000D1F7A091FD02B0E0A50194010E946F0FE2
:101B20002B013C016BE075946794579447946A9538
:101B3000D1F740E8540E611C711CA09102030A2EDB
:101B4000000CBB0BA50194010E947A0FEAE0959569
:101B5000879577956795EA95D1F7A30192010E9441
:101B6000420FDC01CB01FAE0B595A79597958795D3
:101B7000FA95D1F79C01AD01405E5F4FA091FB0249
:101B8000B091FC020E947A0FDC01CB01905EAF4F56
:101B9000BF4FBC01CD01AEE09595879577956795D0
:101BA000AA95D1F7A70196010E94420F6B017C0113
:101BB000BFE09595879577956795BA95D1F79B0185
:101BC000AC010E94420F9B01AC0187E055954795FF
:101BD000379527958A95D1F7A091FA02B0E00E9437
:101BE0006F0FDC01CB0124E0B595A79597958795FC
:101BF0002A95D1F7A7019601281B390B4A0B5B0BDD
:101C0000DA01C90157FF03C080E090E0DC018130B8
:101C10009105A10539E1B30724F080E090E0A0E050
:101C2000B9E1BC01CD012CE0959587957795679535
:101C30002A95D1F70E94021220E030E040E85AE3F2
:101C40000E940013FF90EF90DF90CF90BF90AF9075
:101C50009F908F907F906F905F904F900895CF925C
:101C6000DF92EF92FF926B017C010E949C0B20E0BF
:101C700030E048EC52E40E948811A70196010E94CE
:101C8000881121E03EED42E45EE30E946D139B016A
:101C9000AC0160E070E080E89FE30E94161120E054
:101CA0003AE24DE257E40E940013FF90EF90DF907C
:101CB000CF90089588E090E00E947C010E949009F6
:101CC0000E9446060E94BD000E9406090E94A302CF
:101CD0000E9463060E94CB00789482E091E00E940B
:101CE000C10181E090E09093DB018093DA01C4EFC1
:101CF000D1E001E010E00E94A00980917C02909167
:101D00007D02019711F40E942A068091230390918D
:101D10002403019711F40E942B06809142029091B6
:101D20004302019719F40E949C0404C0D093B102AD
:101D3000C093B0028091AC029091AD02019719F46A
:101D40000E94FE0404C0D093F101C093F001809181
:101D5000400290914102019711F40E946005809128
:101D6000020290910302019711F40E94C50580912F
:101D7000030390910403019719F40E941B0318C0F8
:101D80001092EC011092ED011092EE011092EF0111
:101D9000109204021092050210920602109207029D
:101DA0001092DC011092DD011092DE011092DF0131
:101DB0000E9492019093DF028093DE0290FD40C06A
:101DC000409146025091470241305105F1F4209173
:101DD0000A0230910B028332910549F45093F701C6
:101DE0004093F601109247021092460207C0F90193
:101DF000EE0FFF1FEE57FD4F918380832F5F3F4F04
:101E000030930B0220930A021BC08432910581F0AB
:101E100082369105A9F484E291E00E94C1010E94FA
:101E2000C700F894E0910001F0910101099508C004
:101E300010920B0210920A0210934702009346027E
:101E40008091F6019091F701019721F41092F7012A
:101E50001092F60180917A0290917B0281329E4429
:101E600020F010927B0210927A028091EA01909108
:101E7000EB01813D97400CF43ECF1092EB011092A4
:101E8000EA0139CFDB018F939F930E946F0FBF91BF
:101E9000AF91A29F800D911DA39F900DB29F900DB9
:101EA00011240895AA1BBB1B51E107C0AA1FBB1F29
:101EB000A617B70710F0A61BB70B881F991F5A95D6
:101EC000A9F780959095BC01CD010895EE0FFF1FF5
:101ED0000024001C0BBE0790F691E02D09940E948F
:101EE0000711A59F900DB49F900DA49F800D911D8B
:101EF00011240895B7FF0C946F0F0E946F0F821B7F
:101F0000930B0895DF93CF931F930F939A9DF02D1A
:101F1000219FF00D8B9DF00D8A9DE02DF10D039F0B
:101F2000F00D029FE00DF11D4E9DE00DF11D5E9D37
:101F3000F00D4F9DF00D7F936F93BF92AF925F9323
:101F40004F93D5010E9407118B01AC01D7010E946C
:101F50000711EB01E80FF91FD6010E94D20F2F9154
:101F60003F91D6010E940711C60FD71FE81FF91F26
:101F7000AF91BF910E94D20F2F913F910E94071104
:101F8000C60FD71FE81FF91FD6010E940711E60FE1
:101F9000F71F9801BE01CF0111240F911F91CF911E
:101FA000DF9108950E940711460F571FC81FD91FC0
:101FB00008F431960895689401C0E894F92FF12B44
:101FC00012F00C940F10A0E0B0E0E9EEFFE00C94EA
:101FD0008110092E059422F40E946B10112392F4B3
:101FE000F0E80F26FFEFE094F09400951095B09480
:101FF000C094D094A194BF0ACF0ADF0AEF0AFF0A67
:102000000F0B1F0B0E941A1007FC0E946B10CDB71C
:10201000DEB7ECE00C949D10689401C0E8948F92B8
:102020009F92CF93DF930E941A10DF91CF919F90E0
:102030008F90089588249924F401E401B0E49F93DB
:10204000AA279A158B049C04ED05FE05CF05D00741
:10205000A10798F4AD2FDC2FCF2FFE2FE92D982C60
:10206000892E982F872F762F652F542F432F322FAD
:102070002227B85031F7BF9127C01B2EBF91BB2735
:10208000220F331F441F551F661F771F881F991F7C
:10209000881C991CEE1FFF1FCC1FDD1FAA1FBB1F32
:1020A0008A149B04EC05FD05CE05DF05A007B107EA
:1020B00048F08A189B08EC09FD09CE09DF09A00B3E
:1020C000B10B21601A94E1F62EF49401AF01BE0128
:1020D000CD01000C08956095709580959095309590
:1020E0004095509521953F4F4F4F5F4F6F4F7F4F1A
:1020F0008F4F9F4F08952F923F924F925F926F9212
:102100007F928F929F92AF92BF92CF92DF92EF9287
:10211000FF920F931F93CF93DF93CDB7DEB7CA1B08
:10212000DB0B0FB6F894DEBF0FBECDBF09942A8833
:10213000398848885F846E847D848C849B84AA84DB
:10214000B984C884DF80EE80FD800C811B81AA8168
:10215000B981CE0FD11D0FB6F894DEBF0FBECDBF33
:10216000ED0108950F93083090F0982F872F762F68
:10217000652F542F432F322F22270850F4CF220FE0
:10218000331F441F551F661F771F881F991F0A950D
:10219000B2F70F91089597FB10F8169400080F936B
:1021A000083098F00850232F342F452F562F672FD3
:1021B000782F892F902DF4CF059497958795779553
:1021C000679557954795379527950A95AAF70F91E3
:1021D00008952A0D3B1D4C1D5D1D6E1D7F1D801F2A
:1021E000911F08952A193B094C095D096E097F0961
:1021F000800B910B08950024A7FD00942A17300549
:102200004005500560057005800590050895A29F62
:10221000B001B39FC001A39F700D811D1124911DBA
:10222000B29F700D811D1124911D08955058BB2738
:10223000AA270E942E110C94C6120E94B81238F0E0
:102240000E94BF1220F039F49F3F19F426F40C9439
:10225000A5120EF4E095E7FB0C949F12E92F0E9463
:10226000D71258F3BA17620773078407950720F04F
:1022700079F4A6F50C94F9120EF4E0950B2EBA2F12
:10228000A02D0B01B90190010C01CA01A00111247C
:10229000FF27591B99F0593F50F4503E68F11A1628
:1022A000F040A22F232F342F4427585FF3CF4695B9
:1022B00037952795A795F0405395C9F77EF41F16DB
:1022C000BA0B620B730B840BBAF09150A1F0FF0FA5
:1022D000BB1F661F771F881FC2F70EC0BA0F621F91
:1022E000731F841F48F4879577956795B795F79581
:1022F0009E3F08F0B0CF9395880F08F09927EE0F16
:102300009795879508950E947B1208F481E00895BF
:102310000E949C110C94C6120E94BF1258F00E9499
:10232000B81240F029F45F3F29F00C949F1251112C
:102330000C94FA120C94A5120E94D71268F39923F8
:10234000B1F3552391F3951B550BBB27AA276217B1
:102350007307840738F09F5F5F4F220F331F441FBE
:10236000AA1FA9F335D00E2E3AF0E0E832D09150F2
:102370005040E695001CCAF72BD0FE2F29D0660FDF
:10238000771F881FBB1F261737074807AB07B0E822
:1023900009F0BB0B802DBF01FF2793585F4F3AF028
:1023A0009E3F510578F00C949F120C94FA125F3FF7
:1023B000E4F3983ED4F3869577956795B795F795AE
:1023C0009F5FC9F7880F911D9695879597F9089596
:1023D000E1E0660F771F881FBB1F62177307840732
:1023E000BA0720F0621B730B840BBA0BEE1F88F741
:1023F000E095089597FB16F40E94A8120C943E12E3
:10240000E89409C097FB3EF490958095709561958E
:102410007F4F8F4F9F4F9923A9F0F92F96E9BB2744
:102420009395F695879577956795B795F111F8CFC0
:10243000FAF4BB0F11F460FF1BC06F5F7F4F8F4F2B
:102440009F4F16C0882311F096E911C0772321F021
:102450009EE8872F762F05C0662371F096E8862FB9
:1024600070E060E02AF09A95660F771F881FDAF710
:10247000880F9695879597F90895E894F92F96EB2C
:10248000FF2381F0121613061406440B9395F6955C
:1024900087957795679557954040FF23B9F71BC0FF
:1024A00099270895882351F49850D2F7872B762FD7
:1024B000652F542F432F322F20E0B1F3121613064D
:1024C0001406440B88233AF09A95440F551F661F53
:1024D000771F881FCAF755234AF4440F551F11F47C
:1024E00060FF04C06F5F7F4F8F4F9F4F880F96959F
:1024F000879597F90895990F0008550FAA0BE0E802
:10250000FEEF16161706E807F907C0F012161306B5
:10251000E407F50798F0621B730B840B950B39F4F5
:102520000A2661F0232B242B252B21F408950A265B
:1025300009F4A140A6958FEF811D811D089597F99B
:102540009F6780E870E060E008959FEF80EC089559
:102550009095809570956095509540953095219512
:102560003F4F4F4F5F4F6F4F7F4F8F4F9F4F08959C
:1025700000240A9416161706180609060895002462
:102580000A9412161306140605060895092E0394DC
:10259000000C11F4882352F0BB0F40F4BF2B11F450
:1025A00060FF04C06F5F7F4F8F4F9F4F089557FDAF
:1025B0009058440F551F59F05F3F71F04795880FB1
:1025C00097FB991F61F09F3F79F087950895121648
:1025D00013061406551FF2CF4695F1DF08C01616F4
:1025E00017061806991FF1CF8695710561050894A5
:1025F0000895E894BB2766277727CB0197F90895BC
:102600000E9413130C94C6120E94B81238F00E9454
:10261000BF1220F0952311F00C949F120C94A51278
:1026200011240C94FA120E94D71270F3959FC1F3F3
:10263000950F50E0551F629FF001729FBB27F00D70
:10264000B11D639FAA27F00DB11DAA1F649F6627C5
:10265000B00DA11D661F829F2227B00DA11D621F14
:10266000739FB00DA11D621F839FA00D611D221FCE
:10267000749F3327A00D611D231F849F600D211DB2
:10268000822F762F6A2F11249F5750409AF0F1F035
:1026900088234AF0EE0FFF1FBB1F661F771F881F9E
:1026A00091505040A9F79E3F510580F00C949F1225
:1026B0000C94FA125F3FE4F3983ED4F38695779535
:1026C0006795B795F795E7959F5FC1F7FE2B880F44
:1026D000911D9695879597F90895FA01EE0FFF1FC2
:1026E000309621053105A1F16115710561F480383D
:1026F000BFE39B0749F168949038810561F0803809
:10270000BFEF9B0741F099234AF5FF3FE1053105F3
:10271000210519F1E8940894E795D901AA2329F431
:10272000AB2FBE2FF85FD0F310C0FF5F70F4A695FB
:10273000E0F7F73950F019F0FF3A38F49F779F939C
:102740000DD00F9007FC9058089546F00C94A512F8
:1027500060E070E080E89FE308954FE79F775F9324
:102760004F933F932F930E9468142F913F914F9165
:102770005F910E9400130C94C51329F416F00C9479
:102780009F120C94F9120C94A5120E94DF12A8F368
:102790009638A0F707F80F92E8942BE33AEA48EB53
:1027A0005FE70E9416130F920F920F924DB75EB71C
:1027B0000F920E94B014ECEAF0E00E94F7134F91E0
:1027C0005F91EF91FF91E595EE1FFF1F49F0FE57D6
:1027D000E0684427EE0F441FFA95E1F74195550B49
:1027E0000E942A140F9007FE0C941E140895DF9384
:1027F000CF931F930F93FF92EF92DF927B018C0197
:10280000689406C0DA2EEF010E941313FE01E894CB
:10281000A5912591359145915591A6F3EF010E941F
:102820002E11FE019701A801DA9469F7DF90EF906D
:10283000FF900F911F91CF91DF9108959B01AC0103
:1028400060E070E080E89FE30C9488110C949F1284
:102850000C94E4140E94DF12D8F39923C9F3940F67
:10286000511DA3F39150504094F059F0882332F059
:10287000660F771F881F91505040C1F79E3F51054A
:102880002CF7880F911D9695879597F908955F3FCE
:10289000ACF0983E9CF0BB27869577956795B795E9
:1028A00008F4B1609395C1F7BB0F58F711F460FFBE
:1028B000E8CF6F5F7F4F8F4F9F4FE3CF0C94FA129B
:1028C00016F00C94E4140C94A51268940C949F12C6
:1028D0000E94DF12A8F39923C1F3AEF3DF93CF93E5
:1028E0001F930F93FF92C92FDD2788232AF021978A
:1028F000660F771F881FDAF720E030E040E85FEBD3
:102900009FE3883920F0803E38F021968F770E942F
:102910001711E4EDF0E004C00E941711E1E0F1E0CE
:102920000E94F7138B01BE01EC01FB2E6F5771095A
:102930007595771F880B990B0E94021228E132E7E8
:1029400041E35FE30E941313AF2D9801AE01FF90A6
:102950000F911F91CF91DF910E942E110C94C612FE
:10296000FA01DC01AA0FBB1F9B01AC01BF5728F481
:10297000222733274427507820C0B75190F4AB2F3B
:102980000024469537952795011CA395D2F3002086
:1029900071F0220F331F441FB395DAF30ED00C945D
:1029A000161161307105A0E88A07B94630F49B0121
:1029B000AC016627772788279078309621F020830E
:1029C00031834283538308959F3F31F0915020F427
:1029D000879577956795B795880F911D96958795FB
:1029E00097F908950F931F93CF93DF93CDB7DEB779
:1029F0002E970FB6F894DEBF0FBECDBF0D891E898E
:102A00008F89988D26E02C831A83098397FF02C053
:102A100080E090E801979E838D83AE01455E5F4F15
:102A2000698D7A8DCE0101960E942F154D815E81B0
:102A300057FD0AC02F813885421753070CF49A01BD
:102A4000F801E20FF31F10822E960FB6F894DEBF46
:102A50000FBECDBFDF91CF911F910F9108952F929F
:102A60003F924F925F926F927F928F929F92AF921E
:102A7000BF92CF92DF92EF92FF920F931F93CF936B
:102A8000DF93CDB7DEB72B970FB6F894DEBF0FBE3E
:102A9000CDBF6C017B018A01FC0117821682838104
:102AA00081FFCCC1CE0101963C01F6019381F70173
:102AB00093FD859193FF81917F01882309F4BAC129
:102AC000853239F493FD859193FF81917F018532A1
:102AD00029F4B60190E00E944F17E7CF912C212CEA
:102AE000312CFFE1F315D8F08B3279F038F48032D5
:102AF00079F08332A1F4232D20611DC08D3261F065
:102B0000803369F4232D216016C0832D8260382E16
:102B1000E32DE4603E2E2AC0F32DF8601DC037FC83
:102B20002DC020ED280F2A3040F08E32B9F436FC4B
:102B300081C1232D2064322E19C036FE06C08AE0E2
:102B4000989E200D1124922E11C0EAE02E9E200D99
:102B50001124222EF32DF0623F2E08C08C3621F472
:102B6000832D8068382E02C0883641F4F70193FD2A
:102B7000859193FF81917F018111B3CF982F9F7D24
:102B80009554933028F40C5F1F4F9FE399830DC039
:102B9000833631F0833771F0833509F059C021C095
:102BA000F801808189830E5F1F4F88248394912CC4
:102BB000530113C02801F2E04F0E511CF801A08010
:102BC000B18036FE03C0692D70E002C06FEF7FEF69
:102BD000C5010E9444174C018201F32DFF773F2E5F
:102BE00016C0280122E0420E511CF801A080B180DD
:102BF00036FE03C0692D70E002C06FEF7FEFC501A4
:102C00000E9439174C01F32DF0683F2E820133FCEE
:102C10001BC0822D90E088169906B0F4B60180E2C0
:102C200090E00E944F172A94F4CFF50137FC85916C
:102C300037FE81915F01B60190E00E944F1721108D
:102C40002A9421E0821A91088114910471F7E8C056
:102C5000843611F0893641F5F80137FE07C06081EE
:102C60007181828193810C5F1F4F08C060817181E7
:102C7000072E000C880B990B0E5F1F4FF32DFF766C
:102C80003F2E97FF09C090958095709561957F4F75
:102C90008F4F9F4FF0683F2E2AE030E0A3010E9443
:102CA0008B17882E861845C0853731F4232D2F7E4B
:102CB000B22E2AE030E025C0932D997FB92E8F36B1
:102CC000C1F018F4883579F0B5C0803719F088372D
:102CD00021F0B0C0E92FE061BE2EB4FE0DC0FB2D87
:102CE000F460BF2E09C034FE0AC0292F2660B22E20
:102CF00006C028E030E005C020E130E002C020E15D
:102D000032E0F801B7FE07C0608171818281938152
:102D10000C5F1F4F06C06081718180E090E00E5F04
:102D20001F4FA3010E948B17882E8618FB2DFF775B
:102D30003F2E36FE0DC0232D2E7FA22E891458F46F
:102D400034FE0BC032FC09C0832D8E7EA82E05C038
:102D5000B82CA32C03C0B82C01C0B92CA4FE0FC002
:102D6000FE01E80DF11D8081803321F49A2D997EBA
:102D7000A92E09C0A2FE06C0B394B39404C08A2D44
:102D8000867809F0B394A3FC11C0A0FE06C0B2146B
:102D900088F4280C922C9B180EC0B21460F4B60173
:102DA00080E290E00E944F17B394F7CFB21418F46A
:102DB0002B1802C0982C212CA4FE10C0B60180E371
:102DC00090E00E944F17A2FE17C0A1FC03C088E745
:102DD00090E002C088E590E0B6010CC08A2D8678AC
:102DE00059F0A1FE02C08BE201C080E2A7FC8DE297
:102DF000B60190E00E944F17891438F4B60180E3C1
:102E000090E00E944F179A94F7CF8A94F301E80D4F
:102E1000F11D8081B60190E00E944F178110F5CF1F
:102E2000222009F442CEB60180E290E00E944F17C2
:102E30002A94F6CFF6018681978102C08FEF9FEF2B
:102E40002B960FB6F894DEBF0FBECDBFDF91CF91AA
:102E50001F910F91FF90EF90DF90CF90BF90AF90B8
:102E60009F908F907F906F905F904F903F902F90AA
:102E70000895FC010590615070400110D8F78095CD
:102E800090958E0F9F1F0895FC0161507040019036
:102E90000110D8F7809590958E0F9F1F08950F937E
:102EA0001F93CF93DF93FB01238121FD03C08FEF9D
:102EB0009FEF2CC022FF16C04681578124813581A7
:102EC0004217530744F4A081B1819D012F5F3F4F0A
:102ED000318320838C93268137812F5F3F4F378347
:102EE000268314C08B01EC01FB010084F185E02DE9
:102EF0000995892BE1F6D80116968D919C9117972B
:102F0000019617969C938E931697CE01DF91CF91E1
:102F10001F910F910895FA01AA27283051F120310D
:102F200081F1E8946F936E7F6E5F7F4F8F4F9F4F5D
:102F3000AF4FB1E03ED0B4E03CD0670F781F891F9F
:102F40009A1FA11D680F791F8A1F911DA11D6A0F6D
:102F5000711D811D911DA11D20D009F468943F9120
:102F60002AE0269F11243019305D3193DEF6CF011F
:102F70000895462F4770405D4193B3E00FD0C9F7E5
:102F8000F6CF462F4F70405D4A3318F0495D31FD52
:102F90004052419302D0A9F7EACFB4E0A6959795A5
:102FA000879577956795BA95C9F70097610571057B
:102FB00008959B01AC010A2E0694579547953795C5
:102FC0002795BA95C9F7620F731F841F951FA01D1F
:062FD0000895F894FFCF04
:102FD60000F053797374656D2069732073746172A0
:102FE60074656420616E642072756E6E696E670A20
:102FF6000D0A0D000A0D537072696E6765207A75A9
:103006006D20426F6F746C6F616465722E2E2E0A8E
:103016000D00440021257325643D25640A0D00003A
:00000001FF
